:100000000C942A000C9434000C9434000C943400AA
:100010000C9434000C9434000C9434000C94340090
:100020000C9434000C9434000C9434000C94340080
:100030000C9434000C9434000C9434000C94340070
:100040000C9434000C9434000C9434000C94340060
:100050000C94340011241FBECFE5D4E0DEBFCDBF29
:100060000E9436000C945F000C94000087E081BB76
:1000700018B8379881E090B7986090BF17B8982F5C
:100080009A95F1F7459B02C0909A01C0909890B75D
:10009000986090BF87B9982F9A95F1F7459B02C059
:1000A000919A01C0919890B7977F90BF982F9A9599
:1000B000F1F7459B02C0929ADECF9298DCCFF8947C
:0200C000FFCF70
:00000001FF
