:100000000C942A000C9434000C9434000C943400AA
:100010000C9434000C9434000C9434000C94340090
:100020000C9434000C9434000C9434000C94340080
:100030000C9434000C9434000C9434000C94340070
:100040000C9434000C9434000C9434000C94340060
:100050000C94340011241FBECFE5D4E0DEBFCDBF29
:100060000E9436000C9449000C94000082E081BB91
:1000700082BB85E08EBD22E08CB59DB58CB59DB56B
:1000800089309D43D8F382B3822782BB1DBC1CBC40
:06009000F3CFF894FFCF4E
:00000001FF
