:100000000C942A000C9434000C9434000C943400AA
:100010000C9434000C9434000C9434000C94340090
:100020000C9434000C9434000C9434000C94340080
:100030000C9434000C9434000C9434000C94340070
:100040000C9434000C9434000C9434000C94340060
:100050000C94340011241FBECFE5D4E0DEBFCDBF29
:100060000E9436000C9455000C94000081E081BB86
:100070001ABA90E197BB14BA1BBA18BA15BA82BB68
:1000800060E150E147E229E130E08799FECF869BAD
:10009000FCCF88B3862788BB852F942FF901319731
:0E00A000F1F701970097D1F7F0CFF894FFCF5A
:00000001FF
