:100000000C942A000C9434000C9434000C943400AA
:100010000C9434000C9434000C9434000C94340090
:100020000C9434000C9434000C9434000C94340080
:100030000C9434000C9434000C9434000C94340070
:100040000C9434000C9434000C9434000C94340060
:100050000C94340011241FBECFE5D4E0DEBFCDBF29
:100060000E9443010C94C7010C94000081E18BBBFA
:1000700080E593EC28EC30E0F9013197F1F7019736
:10008000D9F785E58BBB80E593EC28EC30E0F901EE
:100090003197F1F70197D9F782E28BBB80E593ECBA
:1000A00028EC30E0F9013197F1F70197D9F786E6AE
:1000B0008BBB80E593EC28EC30E0F9013197F1F748
:1000C0000197D9F7089581E18BBB8FEF9FEF28EC63
:1000D00030E0F9013197F1F70197D9F785E58BBB4E
:1000E00080E593EC28EC30E0F9013197F1F70197C6
:1000F000D9F782E28BBB8FEF9FEF28EC30E0F9015C
:100100003197F1F70197D9F786E68BBB80E593EC41
:1001100028EC30E0F9013197F1F70197D9F708950C
:1001200081E18BBB8FEF9FEF28EC30E0F901319735
:10013000F1F70197D9F785E58BBB80E593EC28ECC7
:1001400030E0F9013197F1F70197D9F782E28BBBE3
:100150008FEF9FEF28EC30E0F9013197F1F701972D
:10016000D9F786E68BBB80E593EC28EC30E0F9010B
:100170003197F1F70197D9F7089581E18BBB8FEFA4
:100180009FEF28EC30E0F9013197F1F70197D9F7AB
:1001900085E58BBB80E593EC28EC30E0F9013197E5
:1001A000F1F70197D9F782E28BBB8FEF9FEF28EC35
:1001B00030E0F9013197F1F70197D9F78BB380E57A
:1001C00093EC28EC30E0F9013197F1F70197D9F77A
:1001D000089581E18BBB8FEF9FEF28EC30E0F901B0
:1001E0003197F1F70197D9F785E58BBB80E593EC63
:1001F00028EC30E0F9013197F1F70197D9F782E265
:100200008BBB8FEF9FEF28EC30E0F9013197F1F7CE
:100210000197D9F786E68BBB80E593EC28EC30E0BC
:10022000F9013197F1F70197D9F7089581E18BBB77
:100230008FEF9FEF28EC30E0F9013197F1F701974C
:10024000D9F785E58BBB80E593EC28EC30E0F9012C
:100250003197F1F70197D9F782E28BBB8FEF9FEFD0
:1002600028EC30E0F9013197F1F70197D9F786E6EC
:100270008BBB80E593EC28EC30E0F9013197F1F786
:100280000197D9F7089511BA8FEF8ABB12BA1BBA3A
:1002900082990CC083990AC0849B08C0859906C0C6
:1002A000869904C0879B02C00E94360082990CC0C8
:1002B00083990AC0849B08C0859906C0869B04C0A8
:1002C000879902C00E94630082990CC0839B0AC078
:1002D000849908C0859B06C0869904C0879902C08E
:1002E0000E94630082990CC0839B0AC0849908C055
:1002F000859906C0869904C0879B02C00E94900021
:10030000829B0CC083990AC0849908C0859906C055
:10031000869B04C0879902C00E94900082990CC0FD
:10032000839B0AC0849908C0859906C0869B04C037
:10033000879902C00E94BD00829B0CC083990AC0AD
:10034000849908C0859B06C0869904C0879902C01D
:100350000E94BD0082990CC083990AC0849B08C08A
:10036000859B06C0869904C0879902C00E94E90057
:10037000829B8ECF83998CCF84998ACF859988CFA1
:10038000869986CF879B84CF0E94160181CFF894EF
:02039000FFCF9D
:00000001FF
