:100000000C942A000C943C000C943C000C943C0092
:100010000C943C000C943C000C943C000C943C0070
:100020000C943C000C943C000C943C000C943C0060
:100030000C943C000C943C000C943C000C943C0050
:100040000C943C000C943C000C943C000C943C0040
:100050000C943C0011241FBECFE5D4E0DEBFCDBF21
:1000600020E0A0E6B0E001C01D92A436B207E1F79F
:100070000E943F000C9465000C940000089582E0FB
:1000800081BB8FEF87BB8FEE88BB979A85E08EBDD3
:100090001DBC1CBC40B3407850E0509361004093BD
:1000A000600080B3992787FD909580959095692F82
:1000B000661F6627661F609362001092630070E0FF
:0E00C00080E090E00E943E00E5CFF894FFCF74
:00000001FF
