S00D0000636865636B2E7372656319
S11300000C942A000C9434000C9434000C943400A6
S11300100C9434000C9434000C9434000C9434008C
S11300200C9434000C9434000C9434000C9434007C
S11300300C9434000C9434000C9434000C9434006C
S11300400C9434000C9434000C9434000C9434005C
S11300500C94340011241FBECFE5D4E0DEBFCDBF25
S11300600E9436000C944D000C9400008FEF81BB6D
S113007087BB12BA81E088BB60E157E229E130E036
S113008041E0862F952FF9013197F1F701970097F9
S1110090D1F788B3842788BBF4CFF894FFCF50
S9030000FC
