:100000000C942A000C9455000C946A000C943C004B
:100010000C943C000C943C000C943C000C943C0070
:100020000C943C000C943C000C943C000C943C0060
:100030000C943C000C943C000C943C000C943C0050
:100040000C943C000C943C000C943C000C943C0040
:100050000C943C0011241FBECFE5D4E0DEBFCDBF21
:1000600020E0A0E6B0E001C01D92A236B207E1F7A1
:100070000E943E000C948A000C94000080E487B932
:1000800087E886B980E681BB8CE882BB85B7837F31
:1000900085BF8BB780648BBF8BB780688BBF85B7FC
:1000A0008C7F85BF78949798FECF1F920F920FB6E2
:1000B0000F9211248F939F93979A81E090E09093F1
:1000C0006100809360009F918F910F900FBE0F9001
:1000D0001F9018951F920F920FB60F9211248F93B5
:1000E0009F9392B380E2892782BB8CED9FEF0197AB
:1000F000F1F78CE792E90197F1F782E090E09093B5
:100100006100809360009F918F910F900FBE0F90C0
:080110001F901895F894FFCF31
:00000001FF
