:100000000C942A000C9434000C9434000C943400AA
:100010000C9434000C9434000C9434000C94340090
:100020000C9434000C9434000C9434000C94340080
:100030000C9434000C9434000C9434000C94340070
:100040000C9434000C9434000C9434000C94340060
:100050000C94340011241FBECFE5D4E0DEBFCDBF29
:100060000E9436000C9461000C9400008FEF87BB57
:1000700081BB60E128EC30E051E043E068BB80E107
:1000800097E2F9013197F1F70197D9F788B3809595
:1000900088BB88EE93E0F9013197F1F70197D9F722
:1000A00052BB88EE93E0F9013197F1F70197D9F748
:1000B00042BB80E197E2F9013197F1F70197D9F757
:0600C000DDCFF894FFCF34
:00000001FF
