S00E000074696D6572732E7372656382
S11300000C942A000C9434000C9434000C943400A6
S11300100C9434000C9434000C9434000C9434008C
S11300200C9434000C9434000C9434000C9434007C
S11300300C9434000C9434000C9434000C9434006C
S11300400C9434000C9434000C9434000C9434005C
S11300500C94340011241FBECFE5D4E0DEBFCDBF25
S11300600E9436000C9457000C9400008FEF87BB5D
S113007018BA12BA81BB8EB581608EBD79EE63E089
S113008050E142E0272F362F8CB59DB58131974240
S1130090D8F31DBC1CBC2150310921153105A1F731
S11300A088B3852788BB82B3842782BBEBCFF894BF
S10500B0FFCF7C
S9030000FC
