:100000000C942A000C9434000C9434000C943400AA
:100010000C9434000C9434000C9434000C94340090
:100020000C9434000C9434000C9434000C94340080
:100030000C9434000C9434000C9434000C94340070
:100040000C9434000C9434000C9434000C94340060
:100050000C94340011241FBECFE5D4E0DEBFCDBF29
:100060000E9436000C9453000C9400008FEF87BB65
:1000700014BA85BB18BA52E028EC30E041E085B3F1
:100080008F37E9F758BB80E197E2F9013197F1F733
:100090000197D9F748BB80E197E2F9013197F1F771
:0A00A0000197D9F7ECCFF894FFCFD9
:00000001FF
