S01700004763634170706C69636174696F6E322E737265635A
S11300000C942A000C9434000C9434000C943400A6
S11300100C9434000C9434000C9434000C9434008C
S11300200C9434000C9434000C9434000C9434007C
S11300300C9434000C9434000C9434000C9434006C
S11300400C9434000C9434000C9434000C9434005C
S11300500C94340011241FBECFE5D4E0DEBFCDBF25
S11300600E9436000C9446000C94000010BC87E6F5
S113007089B981E08AB983E080BD88E38CB9E7EA75
S1130080F1E63197F1F700C00000F8CFF894FFCF04
S9030000FC
