S01C00007768696C652067726F756E6420636865636B20312E73726563D1
S11300000C942A000C9434000C9434000C943400A6
S11300100C9434000C9434000C9434000C9434008C
S11300200C9434000C9434000C9434000C9434007C
S11300300C9434000C9434000C9434000C9434006C
S11300400C9434000C9434000C9434000C9434005C
S11300500C94340011241FBECFE5D4E0DEBFCDBF25
S11300600E9436000C945F000C94000082E081BB77
S11300708FEF82BB80E187BB88BBBFEFAFEF29E185
S113008030E070E162E050E147E20BC082B38627C2
S113009082BB852F942FF9013197F1F701970097CF
S11300A0D1F7879BF3CF8B2F9A2FF9013197F1F773
S11300B001970097D1F788B3872788BBF2CFF894CC
S10500C0FFCF6C
S9030000FC
