:100000000C942A000C9434000C9434000C943400AA
:100010000C9434000C9434000C9434000C94340090
:100020000C9434000C9434000C9434000C94340080
:100030000C9434000C9434000C9434000C94340070
:100040000C9434000C9434000C9434000C94340060
:100050000C94340011241FBECFE5D4E0DEBFCDBF29
:100060000E9436000C9451000C9400008FE087BB76
:1000700018BA11BA12BA35E026E099E08AE0869BF8
:1000800002C0879938BB869902C0879928BB869B96
:1000900002C0879B98BB8699F2CF8799F0CF88BB27
:0600A000EECFF894FFCF43
:00000001FF
