S01700004763634170706C69636174696F6E352E7372656357
S11300000C942A000C9434000C9434000C943400A6
S11300100C9434000C9434000C9434000C9434008C
S11300200C9434000C9434000C9434000C9434007C
S11300300C9434000C9434000C9434000C9434006C
S11300400C9434000C9434000C9434000C9434005C
S11300500C94340011241FBECFE5D4E0DEBFCDBF25
S11300600E9436000C9443000C9400008FEF87BB71
S113007080E188BB11BA979A83E1879B88BB879BF1
S10D0080FCCF18BAFACFF894FFCFB2
S9030000FC
