S0160000736F6674776172652064656C61792E7372656374
S11300000C942A000C9434000C9434000C943400A6
S11300100C9434000C9434000C9434000C9434008C
S11300200C9434000C9434000C9434000C9434007C
S11300300C9434000C9434000C9434000C9434006C
S11300400C9434000C9434000C9434000C9434005C
S11300500C94340011241FBECFE5D4E0DEBFCDBF25
S11300600E9436000C9451000C9400008FEF81BB69
S113007087BB12BAF9E1E0E051E345E770E162E0E1
S11300802F2F3E2F852F942F01970097E9F72150AA
S1130090310921153105B1F778BB82B3862782BBBC
S10900A0EFCFF894FFCF3E
S9030000FC
