S01700004763634170706C69636174696F6E332E7372656359
S11300000C942A000C9434000C9434000C943400A6
S11300100C9434000C9434000C9434000C9434008C
S11300200C9434000C9434000C9434000C9434007C
S11300300C9434000C9434000C9434000C9434006C
S11300400C9434000C9434000C9434000C9434005C
S11300500C94340011241FBECFE5D4E0DEBFCDBF25
S11300600E9436000C9453000C9400008FEF87BB61
S113007081BB12BA20E030E078EE63E052E0F0E0B9
S1130080E0E00EC042B3452742BB01970097D1F789
S11300902F5F3F4F283E83E0380714F02F2F3E2F69
S10D00A0872F962FEFCFF894FFCFBF
S9030000FC
